:020000040100F9
:1000000068520021AD4700014321020199470001D8
:10001000994700019947000199470001000000003D
:100020000000000000000000000000007148000116
:1000300099470001000000000948000199470001AC
:10004000E9490001E9490001E9490001E9490001E4
:10005000E9490001E9490001E9490001E9490001D4
:10006000C19D0101E9490001E9490001E949000197
:10007000E9490001E9490001E9490001E9490001B4
:10008000E9490001E9490001E9490001E9490001A4
:10009000E9490001E9490001E9490001E949000194
:1000A000E9490001E9490001E9490001E949000184
:0800B000E9490001E9490001E2
:1000B80053B94AB9002908BF00281CBF4FF0FF31C7
:1000C8004FF0FF3000F00CB8ADF1080C6DE904CE2C
:1000D80000F018F8DDF804E0DDE9022304B0704709
:1000E800704700BF034611F8012B03F8012B002AC3
:1000F800F9D17047034613F8012B002AFBD1181ACF
:10010800013870472DE9F04786468C460846089E18
:10011800154674461946002B40F0C1808542B2FA54
:1001280082F245D94AB1C2F1200300FA02FC954097
:1001380094402EFA03F343EA0C0C4FEA154EA8B28A
:10014800230CBCFBFEF80EFB18CC08FB00F943EAB5
:100158000C43994528D9EB1808F1FF3704D2994583
:1001680002D9A8F102072B44A3EB0903A4B2B3FBFD
:10017800FEFC0EFB1C330CFB00F044EA0344A042D7
:1001880014D92C190CF1FF3304D2A04202D9ACF1D6
:1001980002032C44241A43EA07401EB1D44000232A
:1001A80034607360BDE8F0874746DDE76346F1E7F2
:1001B80092BB431B01214FEA154EAFB2200CB3FB93
:1001C800FEFC0EFB1C330CFB07F840EA0343984582
:1001D80061D9EB180CF1FF3004D2984502D9ACF183
:1001E80002002B44A3EB0803A4B2B3FBFEFC0EFBF6
:1001F8001C330CFB07F744EA0344A7424DD92C19DA
:100208000CF1FF3304D2A74202D9ACF102032C440B
:10021800E41B43EA0040C0E7C2F120039540944044
:1002280020FA03F12EFA03F34FEA154E9040AFB2CD
:100238000343B1FBFEFC0EFB1C10190C0CFB07F86A
:1002480041EA0041884522D969180CF1FF3004D2EF
:10025800884502D9ACF102002944A1EB08019BB200
:10026800B1FBFEFC0EFB1C110CFB07F743EA014334
:100278009F420ED9EB180CF1FF3104D29F4202D9EC
:10028800ACF102012B44DB1B41EA004193E76046D5
:10029800E3E76146F7E76046A4E76346B8E78342C9
:1002A80006D916B9002108467CE7C6E900E0F9E757
:1002B800B3FA83F78FB9834201D3724508D8BEEBEE
:1002C800020460EB030301209C461EB9002169E784
:1002D8003846FAE7C6E9004CF8E7C7F1200CBB40FE
:1002E8000EFA07F522FA0CF42EFA0CF1BA401C4368
:1002F80020FA0CF3B8404FEA144901431FFA84FE70
:10030800B3FBF9F809FB18300B0C08FB0EFA43EAAB
:1003180000439A4540D9E31808F1FF3004D29A45C2
:1003280002D9A8F102002344A3EB0A0389B2B3FB64
:10033800F9F809FB183308FB0EFE41EA03418E4524
:100348002CD9611808F1FF3304D28E4502D9A8F1DF
:100358000203214443EA0040A1EB0E01A0FB0298EE
:100368004145CE46434602D306D14D4504D2013815
:10037800B9EB020E68EB0403002EA7D0B5EB0E0212
:1003880061EB030101FA0CFC22FA07F3F9404CEA8D
:100398000303C6E9003199E74046C5E74346D9E774
:1003A8002DE9F8430F46D0E90718856901EB0804E1
:1003B8002F34A542164619D81BA3D3E90023DFF82A
:1003C8007080A1FB0801FFF773FE0346601BA0FBCA
:1003D800080123F07F4414A3D3E90023FFF768FE44
:1003E80020F07F403C603060BDE8F883DFF8409043
:1003F8000DA3D3E90023A5FB0901FFF759FE0AA3C2
:10040800D3E900230A2104460A4824F07F44E8FB84
:100418000901FFF74DFE20F07F403C603060BDE8E9
:10042800F88300BFAFF300808D49FD1A0700000074
:1004380000CA9A3B00166BF1002800F037812DE9BD
:10044800F04FC74C8DB094F86A30DA0700F16B8131
:1004580094F8292094F8353004EB8202D66A04EB2C
:1004680083039F6B0EB3354615F8020BC0F380105B
:100478000FF062FD0368C6F802308388AB803378DA
:100488005B0606D5062128460DF0BCFF002800F0C3
:100498004C813D4615F8020BC0F380100FF04CFD5F
:1004A8000368C7F802308388AB80337813F00E0FE7
:1004B80040F08E80236A1BB10C200DB0BDE8F08F90
:1004C80010F0E0FB8146002800F03C8110F0E6FBCC
:1004D8008246002800F0338113F0FAFC0546002814
:1004E80000F032814FF6FF730386806F05F11C0B15
:1004F800002800F0208105F16C0205F168010DF07B
:100508008DFF4FF4C0234FF00008C5F87831B5F8D7
:100518006430284623F4EF6323F0070343F48C7315
:1005280043F00103A5F8643095F84330C5E9158810
:1005380003F03F0363F07F0385F8433095F87E307E
:10054800C5F8788023F0070385F87E3095F84830A1
:10055800A5F87C8023F00F0385F8483085F845809E
:10056800A5F83680C5F83A80C5F85C80A5F87E8184
:10057800A5F8748115F032FF85F84081C5F84491DB
:1005880013F010FF95F8843160F3020385F8843185
:1005980013F00EFF95F8843160F3C50385F88431B4
:1005A80095F8703105F1C40068F3410385F870319E
:1005B80015F0D6FCC4E9189AC4F820B0C5E9058836
:1005C80085F80080ED611AF02DFA002840F0AF8020
:1005D80094F824300121C3F342030DF12B008DF868
:1005E8002B300EF0BBF80246002861D079783046EF
:1005F80012F086FE312300255A49A360A0FB0101B1
:10060800594BC4E90555C01841F1070152A3D3E974
:10061800002325706560E560FFF74AFDB4F868704F
:1006280020610FF045FC00F109083FB9357805F065
:100638000F05A5F10105B5FA85F56D0994F82400B3
:10064800236965F3000010F0010584F8240036D012
:1006580000200225454A0493099201930694444FC9
:100668001060444A0BAE0321059243462A46CDE961
:1006780002000090079708960B950FF0D3FA3146C1
:1006880010F094FBA0B90B954AF2D8353A4A434684
:10069800059203210122CDE90300CDE90100079766
:1006A8000896069400950FF085FA31E012F07ABDAD
:1006B800236A002B3FF400AF12F030FDFCE64FF642
:1006C800FF7291214FF0020903922C48274A0493A4
:1006D80003F24713069402951360A7FB000301FB7E
:1006E8000731234B09920793224B0BAE05931AA3AC
:1006F800D3E90023CDF82C900896FFF7D9FC0146E2
:10070800434601914A462846032100950FF08AFA8C
:10071800314610F04BFB0028CAD194F86A3043F0F8
:10072800010384F86A300020C7E61220C5E612F0FB
:10073800F5FC0320C1E605F17000A867DBE6484632
:1007480010F0A6FA0720B8E6504610F0ADFA484671
:1007580010F09EFAF6E700BF8D49FD1A0700000069
:10076800B01F002100CA9A3B8C49FD1AA41F002122
:100778005900010181330101752E0101002AE78426
:1007880070B5044694F824308AB0C3F342030D468A
:100798000DF12300012116468DF823300DF0DEFF00
:1007A80071780246284612F0ABFD22A3D3E9002354
:1007B8001B491C4DA0FB01C11CEB050041F10701C1
:1007C800FFF776FC23690546984222D20022191ABF
:1007D800029102210192144A144BA21ACA40A3FBA7
:1007E80002320023D2080A440991114909AE059141
:1007F80018460321CDE903330696D2B200930FF0D1
:1008080069FA314610F0D2FA38B9256100200AB0E9
:1008180070BDFBD90021EA1ADAE70C200AB070BDD6
:1008280000CA9A3B8C49FD1AB01F0021F712DA4B17
:10083800590001018D49FD1A070000000000000061
:1008480070B51B4C9DF8106094F844C01CF001056D
:1008580024D1E6466187912163F3420E400194F862
:100868003230F60000F0200C06F018064CEA060CB0
:10087800104823F038034CEA030384F83230A2FB13
:10088800000384F844E001FB023107A3D3E9002305
:10089800FFF70EFCE0632064284670BD0C2528464F
:1008A80070BD00BFAFF300808D49FD1A070000003E
:1008B800600E0021002AE78470B504469126124D87
:1008C800C2834FEA411CA3FB05019DF810E006FB1B
:1008D80003114FEACE0EA37D0EF0180E0CF0200C7B
:1008E8004CEA0E0C23F038034CEA030C84F816C0CB
:1008F80003A3D3E90023FFF7DBFB206270BD00BF31
:100908008D49FD1A07000000002AE7840000000056
:100918002DE9F047044690F8440094F83230C0F3CB
:10092800400060F386138CB084F8323004F134014F
:100938000FF012FB0027912194F83220638F4E4864
:1009480002F0790284F83220A3FB0002C4E905779B
:1009580001FB032146A3D3E900232770E461FFF7D5
:10096800A7FB31230646226CA36002F109039E42CD
:100978008EBF184630463A46404D4149651BA1FB9B
:100988000515DFF80081C5F307156760E76005EB1B
:100998004501E263206148F821000FF089FA236AD3
:1009A8004FEA450A00F10907002B45D00DF12C0943
:1009B800AA4408EB8A034FF0000809930223912107
:1009C800CDF820900694CDF80C8022690B932A4824
:1009D800638F0492A3FB000201FB03212A4B043519
:1009E80007932A4BEDB2059321A3D3E90023FFF720
:1009F8005FFB104619464FF47A720023FFF758FB45
:100A080001463B4602912A46032140460196CDF80D
:100A180000800FF007F9494610F0C8F940B994F87A
:100A2800443043F0010384F844300CB0BDE8F0874B
:100A38000C200CB0BDE8F0870DF12C09CDE90A3384
:100A480003204B4621690AAA01F08AF90028AFD190
:100A580007A3D3E900230B990D48A1FB0001FFF779
:100A680027FB0A9B20F07F471F44A1E7AFF30080D4
:100A78008D49FD1A07000000002AE784600E002156
:100A8800398EE33834200021590001011139010160
:100A980000CA9A3B000000002DE9F04F05468BB0D4
:100AA8008B4601200221994614461CF0BFFA002209
:100AB8000221824601200DF003FD4FF4C4723E4925
:100AC80028460DF08BFC06463C4B0536F6B20093E3
:100AD80001214B460020324601950FF053F910F0E2
:100AE800FD0F0ED040F68F03354A3649364820F0C0
:100AF800FAFD002383F31188BFF36F8F0323184691
:100B080002DF324BA4FB034829A3D3E90023204684
:100B18004146FFF7CDFA07222D4B20F07F47A7FB70
:100B2800033102FB0711E01A68EB01014FF47A72F6
:100B38000023FFF7BDFACDE900B7029008950695A6
:100B4800296995F943402348049123494B4631EAE2
:100B5800240128BF01464FF6FE7405911F4932460D
:100B680007910020012103940FF024F810F0FD0FE5
:100B78000ED040F6A403124A1249134820F0B3FDE0
:100B8800002383F31188BFF36F8F0323184602DF16
:100B9800BAF1000F02D10BB0BDE8F08F012202219B
:100BA80010460BB0BDE8F04F0DF08ABCAFF30080E3
:100BB8008D49FD1A07000000A80E0021793E0101A9
:100BC800D052020194530201E849020100CA9A3B3B
:100BD8008D49FD1A41970101F5980101193E01015E
:100BE8004FF6FF732DE9F04184688CB0228E9A424B
:100BF80046D00646204615F0E7FE337D012B00F06F
:100C08003F81022B00F03181002B00F0108194F815
:100C18004071002F40F02D81338ACDE90A77B4F86E
:100C28003A8094F9432073B3002AC0F277810023F5
:100C3800A4F87A31258FB37C454403F003030135CA
:100C4800012BADB23BD0B4F87E31002B00F02181EE
:100C58009D4280F0788100225B1B9BB2062BA4F892
:100C68007E31628740F2128194F943309342C0F298
:100C78006F81002326E020469DF8271013F07AFCA8
:100C88000CB0BDE8F081002AB8BF84F86571258FE3
:100C9800B37C454403F003030135012BADB20ED0FC
:100CA800B4F87A31002BCED0AB4240F25D815B1BA9
:100CB800A4F87A31B4F87E31002BC9D102E00023C0
:100CC800A4F87E3194F84820294663F3820284F818
:100CD800482020460DF1270215F0BCFB7430CAD01D
:100CE800B4F878312BB1AB4240F208815B1BA4F811
:100CF8007831B4F874312BB1AB4240F2F6805B1B0B
:100D0800A4F87431658F17B9A84500F0E58001355E
:100D1800ADB294F8C13013F0010131D1DDE90A0315
:100D28000246002B40F0E880002800F0D7801946E2
:100D38001E46228EE4690090AB4805320191059069
:100D480001210020CDE9035702960694D2B20EF095
:100D5800C1FF10F0FD0F93D010F052F884428FD0ED
:100D68004FF4AE63A14AA249A24820F0BCFC00237C
:100D780083F31188BFF36F8F0323184602DF7FE7E1
:100D880094F943206FF30003002A84F8C130C0F2BD
:100D98009B8094F86400C0F3C00100F0070019F0CC
:100DA80069FC94F86410638D01F003022832C1F3E2
:100DB8004001D200CA4003F23F13B2F5A07F2CBF16
:100DC8009B1803F5A07394F86560072106F00302E9
:100DD8002832C6F34006D200F240B2F5A07F2CBFFD
:100DE8009B1803F5A073844A03448448E3FB00215D
:100DF80010467BA3D3E90023FFF75AF9266920F0B0
:100E08007F40864234BF811B361A206138BF0026D6
:100E1800DDE90A0328BF00210246002B89D151EAE7
:100E2800000C86D1002E59D01846194681E794F84F
:100E38007E3003F01803182B7FF4E9AEA18EB4F8C6
:100E480076218B1D9A42D2BF1346931F5B1AB4F8C2
:100E58007211C8BF9BB2994200F0A280A4F8723107
:100E6800A4F87431A4F87821D1E63D231F4684F80C
:100E78004031394620460CB0BDE8F04113F07ABB4A
:100E88000023A4F87831A4F87431C0E601273B4662
:100E980018E7628E42F21071052A8FBF40F2E243D2
:100EA8004FF4FA73013292B203FB02F2B4F87C31C8
:100EB80001FB0323013BB3FBF2F39BB2A4F87E31A1
:100EC800002B7FF4C5AEFDE694F86500012100F023
:100ED800070019F0D1FB64E73D461AE7002D48D01A
:100EE800002110460E460B4623E700232046A4F8AF
:100EF800743115F051FB05E70E461AE70FF014FFA1
:100F08000146002838D00023A4F878311B23228E0C
:100F18000371C28000680FF0D9FEEAE694F86531E3
:100F28008BB3013B84F8653104F1C405284615F0FC
:100F380059F800283AD0284615F054F8002839D036
:100F48000023638773E60821204613F013FB97E616
:100F5800B8F1000F14D1D4F868315A0813F001031E
:100F680036D1C4F8682184E63E21204613F002FBFE
:100F780086E6002FB4D183E60123A4F87831B8E6D9
:100F8800134601279EE60AAA30460BA9FFF708FA7E
:100F9800DDE90A231343C7D0237884F86531C3E712
:100FA800B4F8781100297FF432AE59E7FF2013F026
:100FB800A3FAC0E70246D4E91A010DF047FA00285F
:100FC800BED194F848301B0744BFA38E63872EE632
:100FD80042F000421F46C4F86821434672E600BF4B
:100FE8008D49FD1A07000000D53D0101D0520201CC
:100FF800E0530201E84902018C49FD1A00CA9A3BF4
:101008002DE9F04F87B0BDF84440CDE90432029491
:101018000378BDF84840BDF840A00394BDF84C7073
:101028000446868F0191002B00F01981013EB6B26B
:10103800A368F21B92B2002BD4F8FC8000920ADA63
:10104800E168626823F0004391422CBF88449044D1
:10105800A360A8EB030894F86400C0F3C00100F093
:10106800070019F007FBB4F832B0009BBBF1050F7D
:1010780040F2FC8003FB0BFBBAF1050F40F2E2499A
:101088001FFA8BFB40F2FC8094F8652094F86410FA
:1010980002F003032833C2F34002DB00D340B3F568
:1010A800A47F38BF4FF4A47301F003022832C1F3C0
:1010B8004001D200CA40B2F5A47F2CBF9B1803F5AB
:1010C800A4734FF09612A2629622072103F2D51359
:1010D8000344A2857A487B4A5546E3FB0021104623
:1010E80075A3D3E90023FEF7E3FF40F2E24320F0C3
:1010F8007F400BFB09F903FB05F51FFA89F3B3FBE6
:10110800F5F9206105FB09F080B283421FFA89FBDB
:1011180080F097806A49C01A80FB010166A3D3E971
:101128000023FEF7C5FF20F07F408044E38EB4F82B
:10113800042113441F4494F84330BF1BBB44DB090C
:10114800A4F836B000F0A880E26C0099636D40F214
:10115800E24702FB1133636519F0AEFC834694F84D
:101168006401574EC0F3420019F0A8FC059B834464
:1011780007FB03F305FB0BFBE3650BF5742B524BE5
:101188000BF23F2BA3FB0B3B4FEA9B4303FB09F0FE
:10119800E364A5EB030B636D6A080344963A934234
:1011A80028BF1346C4E914230023A0FB0601C4F892
:1011B8006C3141A3D3E90023FEF77AFF049BA8EB27
:1011C80000084248A0FB03303BA3D3E90023800A70
:1011D80007FB00F0A0FB0601FEF76AFF20F07F4640
:1011E800029B2946A386039B2046A4F87C31A4F8D9
:1011F80032A015F06BF9364BA18E2B44B3FBF5F3F7
:10120800881D9AB29042A4F8762104D2C1F57F4194
:10121800FA310A4492B2019BA4F8722113B1002357
:10122800A4F87E3143465A4631462046FFF734FC3F
:1012380094F8703143F0010384F8703107B0BDE8C9
:10124800F08F1B1A1E4883FB00011BA3D3E9002360
:10125800FEF72EFF20F07F40A8EB000866E7C38E5C
:101268001E44B0F804311E44B6B2E1E60BFB033B62
:10127800BAF1050F4FF4FA791FFA8BFB3FF604AF6A
:101288004FF09613A36296230AF10105A3850A205D
:101298004FF4FA73ADB22CE7049B0948AB46A3FBA5
:1012A800000105A3D3E90023FEF702FF20F07F46E3
:1012B800013695E7AFF300808D49FD1A070000005D
:1012C80000CA9A3B8C49FD1A83DE1B435917B7D1D4
:1012D8007FC3C901000000002DE9F04F13461546F1
:1012E8000A680446D2F80090024652F82EAB53F82A
:1012F800087B92780E46C18DD0F81E0091B094F804
:101308001C800E90608C29819A70D4F82A30ADF830
:101318003C006B60D4F83A3005F1220CC5F8223055
:1013280094F83E30C8F3801885F8263010AB13E9DE
:1013380003000C90ADF83410604605210DF00EFA4C
:1013480095F8273000F03F0060F3050385F8273053
:1013580094F83F300128C3F3040285F82820A28EB0
:10136800EA8208D903F01F031B3303F01F030B2B7A
:1013780001D892B2BAB900220126C9F8142095F80A
:101388002C30504662F3000385F82C30E56821467E
:1013980026710FF08FFC294628682E7111B0BDE820
:1013A800F04F0FF093BC002140F2E2433268384618
:1013B8005160E28EB5F816B02A8303FB0BFB638EEF
:1013C8000B9315F097F894F83F2097F86411520999
:1013D80062F3430187F8641119F06EFB024697F82F
:1013E80064010A92C0F3420019F068FB40F2E2433C
:1013F8000A9A594610440BFB00F0B94A00F57420CC
:1014080000F23F20A2FB00204FEA5B02800C963AD4
:1014180028636A6394F83120384602FB03F36B644F
:10142800238FA7F87C3115F051F8AE4BAE4A5B44D8
:10143800B3FBFBF3C7F880219AB2A7F87621298B72
:10144800881D824204DDC1F57F41FA310A4492B217
:101458002346A7F872216A68C7F8682113F81C2F79
:10146800C2F340120A92DA0700F113814FF4807335
:101478000C98A383BDF8343084F81E80C4F81F008C
:10148800A4F82330EB8A3846E3842B8B2385B7F8FE
:101498007C31638597F86431C3F3420384F82C30B8
:1014A80012F022FD03462146AB825046E380746861
:1014B8000FF000FC1C23AA8A23710A9BD4F8008031
:1014C800E280002B40F0D9800A9B237721464046D2
:1014D8000FF0FCFB95F8494095F8488004F00704A4
:1014E8000121204608F0070819F0C6F808F00303A0
:1014F8002833C8F34008DB0023FA08F3B3F5A47FC8
:1015080038BF4FF4A47304F003022832C4F3400434
:10151800D200E240B2F5A47F2CBF9B1803F5A47358
:10152800824600244FF0310C4FF096120721DFF865
:10153800BC816F4803F2D5135344C5E90322E3FB8A
:10154800080165A3D3E90023C7E9014CFC60FEF755
:10155800AFFD034640F2E24C23F07F433B61DDF8E8
:101568002CE0F36822460CFB0E33022103F2B3434E
:101578000120A3EB0A0A2D6B0CF0A2FF484612F0DB
:10158800BBF80246AAFB0801924653A3D3E90023FD
:10159800FEF78EFD8046CDF80490B368554A3A3B75
:1015A800009228F07F480AF1020201212046D2B2B7
:1015B80043440EF0E7FB0128ABEB050578D099F81A
:1015C8002430DB0751D4384612F08EFC474B0446D2
:1015D800A5FB035940A3D3E9002328464946FEF753
:1015E80067FD0697B3680722A3F13A0B4FF4F5732A
:1015F8004FF0000A08934049404B20F07F4607917E
:10160800A6FB0331E81A3E4B02FB061105933B6922
:1016180069EB01014FF47A72CDE903A30023FEF7C9
:1016280047FD0534E4B202905B462246012150464C
:10163800CDE900860EF0BEFA10F0FD0F0DD040F295
:10164800EB13304A3049314820F04DF88AF31188BD
:10165800BFF36F8F0323184602DF012202211046D1
:1016680011B0BDE8F04F0CF02BBF00230122184643
:10167800114600930EF04AFBA5E795F82730281D80
:1016880043F0400385F8273018F020FB0123288514
:101698001BE7FD231B4A1E491C4820F024F80023A1
:1016A80083F31188BFF36F8F0323184602DFDDE64B
:1016B8000FF0A6FB814582D040F29223114A1549CA
:1016C800124820F010F884F31188BFF36F8F0323BA
:1016D800184602DF73E700BF8D49FD1A07000000B6
:1016E80083DE1B437FC3C901404B4C0000CA9A3BB1
:1016F8008C49FD1A01970101CD9601018D49FD1A0A
:1017080041970101A858020194530201E8490201D6
:10171800704F0201045902012DE9F04F04468BB0C5
:10172800BDF85C5000209B46CDE903419DF85470FC
:10173800BDF858A0BDF860800695059212F0D0F962
:10174800002800F0258107F00105044628460EF020
:10175800F3FB002D4ED1D4F8209004F11C0307931D
:10176800B9F1000F4DD0266A356896F84800C0F3E5
:10177800C00100F0070018F07DFFDFF8ECC200F2AE
:10178800CF3207216046F389B84E1344E3FB0601C4
:10179800B3A3D3E90023FEF78BFCDDE90323064658
:1017A80026F07F462E6194F84450002167F34205E5
:1017B80084F8445094F8335004F11C006BF300058E
:1017C80084F83350149D2D686562149DAD88A4F883
:1017D80030802585059D0095FFF76EF8206419F087
:1017E80021F9002840F0D8802046FFF791F80BB087
:1017F800BDE8F08F06210CF005FE0028ABD11220C1
:10180800F5E70FF03FFA0790002800F0028112F088
:101818005FFB0546002800F0F98020300CF0B4FF8B
:1018280005F11C06002840F0E380032105F124009F
:1018380018F0D0FD069BA86FAB864FF6FF73A5F88E
:1018480032A02B86002800F0E6804FF0000905F151
:101858006C0205F168010CF0E1FDB5F86430C5F8DB
:10186800789023F4EF6323F0070343F48C7343F079
:101878000103A5F8643095F87E30A5F87C9023F034
:10188800070385F87E30A5F83690C5F83A9005F13B
:101898003E0018F0C5F995F84330012160F30503BF
:1018A80085F843300DF1270018F094FD85F8459030
:1018B800A5F87E91A5F8749140F2E2494FF4C02250
:1018C80009FB0AF96A4B9DF827104B44B3FBF9F35F
:1018D800C5F87821674AA5F87C81A2FB0102D208E5
:1018E80002EB4202A1EB820195F84320053102F098
:1018F8003F0285F8432095F8482085F84410A98EC2
:1019080022F0070285F84820881D9AB28242A5F87D
:10191800762102DD063A521A92B24FF0000AA5F873
:101928007221284614F05AFD4946284614F0CEFD87
:10193800079B85F840A1C5F8443112F033FD95F8AE
:10194800843160F3020385F8843112F031FD95F893
:10195800843160F3C50385F8843195F8703105F159
:10196800C4006AF3410385F8703114F0F9FA4FF0B6
:1019780096133122C5E90A33C5F804A0C5F80CA0AE
:10198800AA602662C5E905AA85F800A0ED61ECE623
:101998000C200BB0BDE8F08F256AEB6D73B140F2F7
:1019A8002943354A354936481FF09DFE002383F305
:1019B8001188BFF36F8F0323184602DF05F150012A
:1019C80005F14C000CF02EFD0646002836D02F6895
:1019D800EE65D7F8445115B328460FF059F9384643
:1019E80012F07CFA0023032023620BB0BDE8F08FCD
:1019F800C123214A234922481FF075FE89F3118823
:101A0800BFF36F8F0323184602DF0EE707980FF026
:101A18003FF90720EBE605F17000A86715E740F2EB
:101A28003243154A184916481FF05DFE85F31188A0
:101A3800BFF36F8F0323184602DFCDE740F22B4335
:101A48000D4A11490E481FF04EFE86F31188BFF368
:101A58006F8F0323184602DFB9E700BFAFF300809A
:101A68008D49FD1A070000008C49FD1A00CA9A3BEF
:101A78007FC3C901ABAAAAAA34590201AC51020119
:101A8800E84902019C4A02012053020100000000BB
:101A98002DE9F04F0446238D067F8DB0406AADF8DE
:101AA8002C30E307C6F3C017884615460A90C6F3DC
:101AB800401600F1EC804FF00009BDF82C300A9870
:101AC800A777A4F81C90A4F82330C4F81F00D8F80E
:101AD8000030D3F800A0EB8AE3842B8B2385BAF877
:101AE8003030638518F0E6FF84F82C002F683846FC
:101AF80012F0FAF903464946AB823846E38014F0FF
:101B0800F9FC21462068D8F804400FF0D3F81C23CC
:101B1800AA8AD4F80090E2802371002E40F0C78092
:101B28002146484626770FF0D1F8D7E9012393429A
:101B380038BF134640F2E24295F84800B5F81690CF
:101B4800C0F3C00100F0070003F1090B02FB09F91B
:101B5800D8F80C6018F08EFD00220221361A0120F8
:101B68000CF0AEFC504611F093FF57A3D3E90023C5
:101B7800574C0546A6FB044620463146FEF798FA20
:101B88008446CDF804A0D8F80830524AA3EB0B03DA
:101B980000922A1D2CF07F4501210020D2B22B444F
:101BA8000EF0F0F810F0FD0F0ED040F249334A4A1B
:101BB8004A494B481FF097FD002383F31188BFF370
:101BC8006F8F0323184602DF4FF0000A032201211A
:101BD80053465046CDF800A00EF098F8384612F05B
:101BE80083F90346D8F8082039489846A9FB00012C
:101BF800A2EB0B0B34A3D3E90023FEF759FA40F20A
:101C080079310991374907970891374981460691F3
:101C180039691046CDE904A14FF47A7219460023B8
:101C2800FEF746FA0722314BCDE90290A5FB0331B6
:101C380002FB0511E01A66EB01014FF47A720023EA
:101C4800FEF736FA08F105085FFA88F801905B4656
:101C580042460121504600950DF0CCFF10F0FD0FD3
:101C68000DD040F27A331C4A1C491D481FF03BFD39
:101C78008AF31188BFF36F8F0323184602DF01220E
:101C8800022110460DB0BDE8F04F0CF019BC4FF41E
:101C98003173114A164912481FF025FD002383F3BA
:101CA8001188BFF36F8F0323184602DF03E795F807
:101CB8002730281D43F0400385F8273018F006F830
:101CC800012628852CE700BF8D49FD1A0700000072
:101CD80000CA9A3BBD98010134590201945302018C
:101CE800E8490201C1980101F59801018D49FD1AE1
:101CF800704F020100000000052801D00020704745
:101D080070B500200D4612F0F7F8044618B190F9A6
:101D18004330002B01DA002070BD90F864000E4EAD
:101D2800C0F3C00100F0070018F0A4FC07210B4A1B
:101D380000F26540E0FB0621104605A3D3E9002325
:101D4800FEF7B6F9034623F07F432B60204670BDAB
:101D58008D49FD1A0700000000CA9A3B8C49FD1AFC
:101D68002DE9F04F0024FF27A24693B0CDE90E4499
:101D7800054616463C46D046D146D3460B930B1D26
:101D88008DF837700A9310AB0693594B00200593D2
:101D9800584B294603930FAB01930EAB00930223D4
:101DA80004901093029033460DF137020EF028F894
:101DB800022812D0109BB3B9FF2C25D033684345B5
:101DC80022D0002F42D0FF24013FFFB28DF83740C8
:101DD800D9E7294600200EF059F8109B022BF8D0BD
:101DE800109B002BE8D04FF4EE73434A4349444814
:101DF8001FF079FC002383F31188BFF36F8F03234F
:101E0800184602DFFF2CD9D19DF83700FF282CD0C7
:101E180011A9FFF771FF0028B5D0FF2CDDF8388035
:101E2800119B0AD05946404609930EF043F80A9B85
:101E380003EB09029042099B19D8C3469946D6F884
:101E480000809DF83740DDF83CA09CE74FF4F27322
:101E5800294A2B482B491FF046FC87F31188BFF30A
:101E68006F8F0323184602DFADE7FF2C35D007211B
:101E78002548A9FB000301FB09311BA3D3E9002373
:101E8800FEF716F9044600B13E34204AAAF5742339
:101E9800A3F51073934217D807211B48ABFB000327
:101EA80001FB0B3110A3D3E90023FEF701F901462A
:101EB8000020174BA3FB0A2304EB93440B9B0C4411
:101EC8001C6013B0BDE8F08F0AF1E87A0AF5D43A3D
:101ED8000BF1FF3B0AF5A57ADEE76FF0090013B0B6
:101EE800BDE8F08FAFF3008000CA9A3B0000000005
:101EF800CD9B0101D19B010180590201C459020106
:101F0800E8490201CC5902018D49FD1ABFBDF07F95
:101F180083DE1B43000000002DE9F043C6683E49FC
:101F28007368D0E900971A68A7F57423A3F51073AE
:101F38008B42804683B007D907F1E87707F5D43795
:101F480009F1FF3907F5A57773681169DD8A022061
:101F580006F1100301AACDF80490FFF701FF00284D
:101F680050D10199A1EB09031B0238D40846494610
:101F78000DF0A0FF26A3D3E9002304464FF0070C79
:101F88002649A0FB01010CFB0411FEF791F8346906
:101F98000444002C346109DB40F2E24305FB03F3FF
:101FA800A34230D2E41AA342FCD334610721D8F803
:101FB80000301A48A3EB0903A3FB000201FB03212D
:101FC80013A3D3E90023FEF773F8154BA3FB0737D8
:101FD800A0EB97402044306103B0BDE8F083484649
:101FE8000DF068FF0AA3D3E9002304464FF0070C5D
:101FF8000A49A0FB01010CFB0411FEF759F83469EA
:10200800241AC6E73469002CD0D103B0BDE8F083A8
:1020180000CA9A3B00000000BFBDF07F8D49FD1A41
:1020280083DE1B4300000000F0B5C4680546636802
:1020380083B0002B52D11AF073FA00201AF0C4FAB8
:10204800002108461AF0A2FA0022252108201AF0D9
:1020580025FB3F4B01A801931AF008FB3D4940F2CC
:102068005B601AF0FFFB237A20461A46C3F342034B
:1020780063F30612227218F027FF27682E68384685
:1020880018F094FA03461E446A6806F10901012013
:102098001AF07AFD1AF0B8FE204611F03BFB014613
:1020A800023132463846C9B218F08EFA054600BBEE
:1020B800204618F013FA10B9002003B0F0BD40F222
:1020C8002943254A254926481FF00DFB85F3118829
:1020D800BFF36F8F0323184602DFEDE793F82C3028
:1020E8009B07A8D021461F481AF0F8F91AF050FBB0
:1020F800E2E740F21143184A1B4919481FF0F3FA66
:1021080007211A4B0026A5FB030301FB05310EA38B
:10211800D3E90023FDF7CCFF1549024615481FF007
:10212800E2FA86F31188BFF36F8F0323184602DFA4
:10213800114821461AF0D2F91AF02AFB6FF08B00E9
:10214800BBE700BFAFF3008000CA9A3B0000000065
:10215800D6BE898E55555500945B0201B84B0201D5
:10216800E849020159A70101C04A02018D49FD1A37
:10217800445C0201185C0201D1AA010100000000C0
:102188002DE9F041C4688CB094F91630002BC0F2E8
:10219800DC80636805460E46002B40F0CB80A37DAB
:1021A8006FF30003A3751AF0BBF900201AF00CFABC
:1021B800002108461AF0EAF90022252108201AF021
:1021C8006DFA01200EF0D0FE0746002800F0A3802B
:1021D80007F11C001AF08CFA754B0BA80B931AF038
:1021E80045FA744940F25B601AF03CFBA07DC0F3ED
:1021F8004100253018F0FAF921466F481AF06EF9B7
:10220800A37D9B0603D46368002B00F08180962091
:102218001AF0AEFC00231A46194618461AF01AFCA2
:10222800D4F800802F68404618F0C0F907446A685F
:1022380007F1090100201AF0A7FC1AF0E5FD1AF0D1
:1022480037FC204611F030FC0146043140463A463E
:10225800C9B218F0B9F9804600287DD116B9236AA9
:10226800002B31D163683BB1544B0122022100207D
:102278009D600CF059F9B8B9204618F02FF918B933
:1022880000200CB0BDE8F08140F20B234C4A4D49C8
:102298004D481FF028FA002383F31188BFF36F8F8E
:1022A8000323184602DFEBE740F20623444A474976
:1022B80045481FF018FA002383F31188BFF36F8F86
:1022C8000323184602DFD7E740F2F3120892404A88
:1022D800009307923F4A3B46059231460322CDE9D7
:1022E8000366CDE9016606940DF064FC10F0FD0F5D
:1022F800B8D04FF4FA73324A374933481FF0F3F92C
:1023080086F31188BFF36F8F0323184602DFA9E70E
:102318001AF0B6FB84E74FF4C573294A2F492A48B7
:102328001FF0E1F987F31188BFF36F8F0323184675
:1023380002DF4DE7636893F82C30D90705D463684A
:1023480093F82C309A077FF52AAF214624481AF0D3
:10235800C5F81AF01DFA93E740F2E513184A214927
:1023680019481FF0C0F907211F4B0025A8FB0303DC
:1023780001FB08310CA3D3E90023FDF799FE1B49A3
:1023880002461B481FF0AFF985F31188BFF36F8F22
:102398000323184602DF174821461AF09FF81AF05F
:1023A800F7F96FF08B006CE700CA9A3B0000000059
:1023B800D6BE898E55555500A12400017C03002105
:1023C800505C0201B84B0201E8490201D44A0201FB
:1023D800E1B4010189B50101F8500201E05B020195
:1023E80059A70101C04A02018D49FD1A9C5C0201EE
:1023F800185C0201E1B3010138B5044618F0ACFFDE
:10240800A37DA27DC3F34103013303F00303032B30
:1024180008BF002363F3420214BF03F125002520FF
:10242800A27518F0E3F863680BB1236953B90DF08E
:102438003FFD0146002003311AF032FCBDE8384068
:102448001AF0E2BC1AF076FC05460DF031FD0146A3
:10245800002003311AF024FC1AF0D6FC1AF06AFCAA
:1024680029460DF027FD07210346094AA0FB020271
:1024780001FB032104A3D3E90023FDF719FE236917
:102488001B1A236138BD00BF00CA9A3B0000000038
:102498008D49FD1A000000002DE9F0478AB0044676
:1024A8001AF0CAF9C0B250B918F0FAF82146B8487B
:1024B8001AF014F80AB0BDE8F0471AF069B91AF032
:1024C800DDF905461AF02CFB06461AF033FB1AF024
:1024D80009FBEDB207461AF0E9FA18F0E1F8002D09
:1024E800E4D001200EF040FD0546002800F03381BD
:1024F80094F8168018F0080FC8F3C10AC8F3C00191
:1025080040F0C0802E7F6268FFB206F00F03002AF9
:1025180000F0BD80626892F82C20920700F1B78025
:10252800072BC3D099B9E27DC6F3801102F00102EE
:10253800914240F0AC80062205F11E0104F108002A
:10254800079321F094FD079B002840F0A080002B02
:1025580040F02A816B7F063B1F2BA7D804200EF082
:1025680003FD0028A2D01AF067FC236A064643B987
:1025780040F27122E38B02FB03F3B0FBF3F203FB9F
:10258800120607212268834B12690027A2FB030366
:1025980001FB02317CA3D3E90023FDF789FD6FF429
:1025A8004273C3181F3B47F1FF32B34272F1000276
:1025B800FFF47CAF1AF064FAA67D63681AF06CF930
:1025C800C6F380160296064605F11E03019309AB71
:1025D800049304F1180303932B7F3A46C3F3801343
:1025E800204631460093012319F08EF830461AF040
:1025F80085F81AF00DF9002840F0828121466648D6
:1026080019F06CFF626892F82C3043F0010382F8ED
:102618002C30A37D43F08003A3750EF0BFFC172276
:102628004FF6FF71334606460271C18095F81CE0EB
:1026380000F11C02CEF3401E03F1200C1F685D68F8
:102648009868D96810336345176055609060D16009
:1026580002F11002F2D11B681360337FB4606EF38D
:10266800451333771AF066FB099BC6E904030EF09D
:1026780095FC314603463068F3600AB0BDE8F04780
:102688000EF0B6BCF6B2002E3FF410AF3AE7002BBE
:1026980070D16A7F052A7FF609AF252A3FF606AF73
:1026A80008F02101202940F0C1806268002A00F06A
:1026B800D080062B3FF6FAAE4FF0450929FA03F908
:1026C80019F0010940F0B180012B00F0B380042B10
:1026D8007FF4ECAE6B7F063B1F2B3FF6E7AE18F09E
:1026E800010F3FF4E3AE1AF0D7F82E7F0278C6F355
:1026F8008013B3EBD21F7FF4D9AE0622083005F160
:102708001E0121F0B4FC00287FF4D0AE6B7F002BB3
:102718003FF4CCAE636823B106F00F06072E7FF4B2
:10272800C5AE03200EF020FC054600283FF4BEAEDF
:102738000EF034FC4FF6FF730522EB802A71E7B9DF
:102748007F206B7E287669F30003294628686B761C
:102758000EF04EFCAAE640F2C723104A1049114871
:102768001EF0C1FF85F31188BFF36F8F032318464E
:1027780002DFBDE6062B8CD09BE71AF0A3F9C0B2A6
:10278800DFE700BFAFF3008000CA9A3B00000000FB
:10279800F9B301018D49FD1AD1B50101505C02015F
:1027A800E05B0201E8490201012BE3D16A7F0C2AB0
:1027B8007FF47CAEC8F38013B3EBD61F4FEAD6196B
:1027C80000F0AD80BAF1010F1ED9B9F1000F06D0A3
:1027D80095F8293003F0C003402B3FF4BFAEC8F38F
:1027E8008018B8EBD61F4FEAD61913D0B9F1000FED
:1027F8003FF45CAE95F8293003F0C003402B7FF41A
:1028080055AE4FF0010985E7C8F38019B9EBD61F1B
:102818007FF44CAE062205F1240104F1180021F0E2
:1028280026FC90B94FF0000974E76A7F063A1F2A20
:10283800F8D93BE66A7F0C2A7FF438AEC8F38018D3
:10284800B8EBD61F4FEAD619E4D0BAF1010FCDD8AC
:102858002CE6962007921AF08BF9079A10461AF080
:10286800B5F803200EF080FB064600283FF41EAEA4
:102878000EF094FB4FF6FF730522F3803271002FA0
:1028880058D17F23727E31466FF300023376727619
:1028980030680EF0ADFB19F0FFFF03260C22074647
:1028A800037866F3030303702B7F42700278C3F347
:1028B800801363F3C7120270A37DD2B2C3F38013EF
:1028C80063F3861207F8022BA369C0F80230A38BC2
:1028D800BB80D5F81E3083606B8C838119F00EFFA6
:1028E80019F096FF50BB1AF08FFA2146A37D1B48BA
:1028F80043F00103A3750AB0BDE8F04719F0EEBD37
:1029080040F2AB43164A174917481EF0ECFE87F30E
:102918001188BFF36F8F0323184602DF6EE6062285
:1029280005F1240104F1180021F0A1FB00283FF46F
:1029380015AE47E71AF0C6F8C3B2A3E740F22F5323
:10294800074A084908481EF0CEFE002383F3118881
:10295800BFF36F8F304602DFC5E700BF0DB401013A
:10296800505C0201E85B0201E84902010000000036
:102978004FF6FF732DE9F041C46882B0A28A9A42EB
:1029880000F0DF80054618F0D5FF2B89628BA38302
:102998001A440023208C92B2104494F8271080B275
:1029A800461C26844E066383E28304F1220300F169
:1029B800A18001F03F0094F82810009004F129004C
:1029C80017F03CF90646D4E90C31A28B002002FB33
:1029D8000333A26B276C1344E26B20648B4294BFD1
:1029E800D21852188A4228BF0A46616C94F84930B6
:1029F8003944C4E90E02616494F8622094F82C10FA
:102A0800C3F3020363F3061112F0040284F82C10D6
:102A18007AD019F085FD002019F0D6FD201D19F097
:102A280025FE2389A17A40F25B6043EA014119F04F
:102A380019FF304617F0DAFD21465B4819F04EFDC4
:102A4800A0891AF095F894F8482094F84900C2F340
:102A5800C003002102F0070200F0070019F0FAFF96
:102A6800204619F027F826682F68304617F09EFD93
:102A780003461F446A6807F1090100201AF084F828
:102A880080461AF08BF900201AF0ACF9E36B94F841
:102A9800490003F12F02636C012100F0070003EBEA
:102AA800420519F039FE94F84930454403F007030C
:102AB800022B054426D0042B0CBF4FF4BC722822ED
:102AC80018460121154419F029FE28441AF046F940
:102AD800A18A3A4605313046C9B217F075FD054658
:102AE800002835D1204617F0F9FCD8B9002002B0EB
:102AF800BDE8F0811A4601F03F03218D17F0EAF88E
:102B0800064660E71822DBE7D4E913010BF09EFCC8
:102B180000287FF47EAF94F8623043F0040384F811
:102B2800623076E74FF4B073204A214921481EF0FD
:102B3800DAFD85F31188BFF36F8F0323184602DF90
:102B4800D4E721461C4819F0C9FC19F021FECDE74D
:102B58004FF4AB73154A194916481EF0C4FD0721F6
:102B6800174B0026A5FB030301FB05310CA3D3E992
:102B78000023FDF79DFA1349024613481EF0B3FDE2
:102B880086F31188BFF36F8F0323184602DF0F48BF
:102B9800214619F0A3FC19F0FBFD6FF08B00A6E7A6
:102BA80000CA9A3B0000000029BD0101305D020106
:102BB800B84B0201E849020159A70101C04A0201C4
:102BC8008D49FD1A845D0201185C020139A70101D3
:102BD8004FF6FF73F0B5C46885B0A28A9A4200F038
:102BE8008E80054618F0A6FE2B89628BA3831A44B3
:102BF8000023208C92B2104494F8271080B2461C0F
:102C080026844E066383E28304F1220360D401F034
:102C18003F0094F82810009004F1290017F00EF8EE
:102C28000646204603A919F01DF8039B94F8621084
:102C38001A7861F3C3021A70039A94F86230117813
:102C4800C3F3400363F38201117019F069FC00209B
:102C580019F0BAFC201D19F009FD2389A17A40F268
:102C68005B6043EA014119F0FDFD304617F0BEFCF8
:102C78002046039918F0CCFF21463B4819F02EFC5A
:102C8800E08919F075FF94F8490000F0070019F081
:102C98009DFE27682E68384617F088FC03461E44B8
:102CA8006A6806F10901012019F06EFF1AF0ACF804
:102CB800A18A324605313846C9B217F085FC054667
:102CC80020BB204617F00AFC50B9002005B0F0BD23
:102CD8001A4601F03F03218D16F0FCFF0646A0E7D7
:102CE8004FF48273214A224922481EF0FCFC85F3E6
:102CF8001188BFF36F8F0323184602DFE5E72146EB
:102D08001D4819F0EBFB19F043FDDEE7FA23174ADB
:102D18001A4918481EF0E7FC0721194B0026A5FBA5
:102D2800030301FB05310EA3D3E90023FDF7C0F926
:102D38001449024614481EF0D6FC86F31188BFF3E6
:102D48006F8F0323184602DF1048214619F0C6FB8F
:102D580019F01EFD6FF08B00B8E700BFAFF30080DD
:102D680000CA9A3B000000004DBB0101905D0201C2
:102D7800B84B0201E849020159A70101C04A020102
:102D88008D49FD1AE05D0201185C020139A70101B5
:102D980070B5154888B01EF099FC002004F066FB59
:102DA800064630B10146114808B0BDE870401EF033
:102DB8008DBC0F4D0F4803AC1EF088FC0FCD0FC41F
:102DC8002B683146236032463346009603A805F047
:102DD80075FC014620B108481EF078FC08B070BDAB
:102DE80006481EF073FCF9E7706002019360020167
:102DF80050450201B3600201CA600201F06002019D
:102E08002DE9F04F91B0009302F004030293C2F34E
:102E1800C2030133840705460E46DDF86880039235
:102E2800059340F0BB81041D30B1072909D86FF024
:102E38001B0011B0BDE8F08F01F007063444C6F15D
:102E48000806009B4FF000094FF0040A591E4FF086
:102E5800FF334F460193CB465346CDF810900DB142
:102E6800009A22600598002800F3E8809848009AA4
:102E7800824203D397488242C0F0E080039AA4EBD1
:102E8800050E92074FEA9E0000F103810F2F00F212
:102E9800B180002D00F0058107F140020DEB020C16
:102EA800019A0CF8200C0CF8102C049801300490AE
:102EB800E7E07A285DD84B280ED8472859D8292822
:102EC8002DD8252852D054D820287AD02338D0F1AC
:102ED800000B4BEB000B74E04C382E2849D8DFE888
:102EE80000F07048484848484848484848484B48CF
:102EF8004848484848484859484B4B595959704BD5
:102F08006D487048184B184848827F4B48484B48D2
:102F18007F0000204FF0000B4FF0040A38E0012238
:102F28002A38C0B202FA00F010EA0E0F49D110F0A8
:102F3800625C2FD110EA020B43D06046013C544436
:102F4800B4FBFAF40AFB04F4002D61D0A3EB050CE2
:102F5800A444B4453FF66BAF002868D1042B47D191
:102F680058F8043B2360042304342AE0019A013A08
:102F780001924FF0000B24E011F8010C6C2834D1B9
:102F8800002011F8023C83466C2BC5D14FF0080A8B
:102F98005346D3E708F1070828F00708073424F058
:102FA8000704F8E802AB35B106982044B0423FF672
:102FB8003EAFC4E900AB4FF0000B08344FF0080AED
:102FC800534611F8010F002878D0BBF1000F7FF4A9
:102FD80070AF2528F5D14FF0010B019B0133019308
:102FE8004FF0040AECE7584694E700208346A5E72B
:102FF800082B02D06FF015001BE708F1070828F02E
:103008000708F8E80223C4E9002308230834D8E7AE
:1030180068B9042B02D108F10408A4E7082BE9D108
:1030280008F1070828F0070808F10808EDE7059AED
:10303800013A059258F8042B009210E7039A90077A
:1030480020D54FF0010CA4EB050E4FEA9E00BEF50B
:10305800007FCFD20F2FCDD8F5B107F140020DEB8D
:10306800020E019AC0B20EF8200C0EF8102CBCF11A
:10307800000F3FF41AAF60F07F000EF8200C09F142
:1030880001090137C5F108024FF6DA7E04340692C9
:1030980097E74FF0000CDAE7BCF1000F01D00136DA
:1030A800EFE7029802360028EBD10098CDE9063107
:1030B800FDF720F8DDE906310644E2E7631BB3F5C6
:1030C800806F97D245B9A6F10804E018B1E600BFB1
:1030D80080410201F89D0201029A9B0828602B702A
:1030E8009DF81030C2B1EB7085F80290B9F1000F6D
:1030F80005D0002208A8C5F1010C97420ED14FF067
:10310800000AC5F101030DF1200801930DF1300B00
:10311800574512D1601B8CE66B70E5E710F8013B50
:10312800190608D50CEB040EB64503F07F033FF6ED
:103138007EAE04F8013B0132DFE7B9F1000F03D09E
:1031480098F90020002A17DB029BD3B11AF80B204C
:1031580004F8012B0022019B18191044B0423FF6D5
:1031680066AE98F80000009904F8010B2046039217
:1031780020F04EFF039A14440AF1010A08F10108ED
:10318800C6E798F8002055F822300093029B009873
:1031980045F82230FCF7AEFF421CDCE76FF00D006B
:1031A80047E600BF2DE9F04F97B000AFD7F880B0E1
:1031B8007B62CBF3C0030446894690F802A0FA620A
:1031C800BB6141B9457800780AEB800020444D4541
:1031D80017D8A0EB0409E378FB61BAF1000F02D01D
:1031E8001BF0010F16D1FB6953BBFB6A1BB14946A3
:1031F80020467A6A98474D4628465C37BD46BDE862
:10320800F08F461C3046FCF775FF0130304409F159
:103218000109DCE762682378BA62FA6A9900796181
:1032280004EB8301002A40F001810E464FF00008AC
:103238004D4601EB0A094E454CD101EB0A0610E058
:103248001BF0020FD1D023789A007A61626804EBF0
:103258008301BA62FA6A002A77D14D46904601EB9B
:103268000A061BF0050F0CBF02230123FB62FB6952
:1032780006EB430A0BF002037B625645BCD016F8F6
:10328800021B16F8013C54F823909A4B994502D337
:10329800994B994536D3BB69002B40D0B86A1EF0CC
:1032A800ECF900283BD0E9468AB06A46934B536153
:1032B800BB6AC2E906314FF400731384904B42F89D
:1032C800103F00234FF412518E4800F005FD023DD7
:1032D800CD46D2E716F8013BF96254F82300FCF713
:1032E80009FFD7F88430F96A01304BB1D7F8883034
:1032F80098453EBFD7F8843023F8180008F1010834
:10330800054498E7BB6923B1B86A1EF0B6F90028EE
:10331800C9D11BF0010F05D1FB6AED1AADE77B6A35
:10332800002BAAD04846FCF7E5FED7F8843053B105
:10333800D7F8883098453FBFD7F88420431C22F837
:10334800183008F10108054497E7BAF1000F73D067
:103358001BF0040673D0D046002607F148005246F9
:103368003B61396220F054FE396A3B6901EB0A027D
:103378003A62FA695200FA60D7E9071202EB410291
:103388003A610BF00202BA603A69396A8A4258D146
:1033980062781BF0020F18BF0021BA6208BF4FEA1B
:1033A8005801B2181BF0010FD2B240F0A1801BF0F7
:1033B800040F14BF40460020BB616270A070E1702A
:1033C80020467A6A7969FB6A9847051EFFF614AFAA
:1033D800BB6941462370BB6A7A6A6370FB6984F8EB
:1033E80002A0E37007F14800FB6A9847B0F10008B3
:1033F800C0F2BC807B69A9EB0A01C91AFB687A6A2A
:10340800C91A386AFB6A98470028C0F2B1804FF0A1
:10341800000BA84408EB000507F1380AB34573D33D
:1034280000217A6A0846FB6A9847E5E656464FF057
:10343800000807F1380092E75646D04696E7B046AE
:1034480094E73A6A12F8021B12F8015C3A6254F8DF
:103458002500284A904202D3274A904220D3BA69CD
:1034680032B1B86A7B601EF008F97B6800288BD1FE
:10347800BA6812BB08F1280208F1010007F1300C04
:10348800C0B294440CF8101C00F1280207F1300176
:1034980008F1020850185FFA88F800F8105C73E722
:1034A800BA693AB1B86A7B601EF0E7F87B68002811
:1034B8007FF46AAF1BF0010F09D006F1280207F16B
:1034C8003000711C161806F8205CCEB25CE71BF0C1
:1034D800040F3FF459AF08F1280207F1300008F152
:1034E800010102EB000808F8105C5FFA81F84BE76D
:1034F800002061E780410201F89D02010561020197
:1035080004000001D04402011BF80A3054F823904B
:1035180087F83730D7F884302BB3D7F888309B45F5
:1035280021D2D7F8843033F81B8001217A6AFB6AEC
:1035380007F13700984700281ADB0544B8F1000F57
:1035480006D14846FCF7D6FD00F101081FFA88F8B5
:10355800414648467A6AFB6A9847002808DB0544D2
:103568000BF1010B5AE74FF00008DEE7454643E64A
:10357800054641E6014B1860704700BF80010021F5
:1035880080B505460E46174698461DF0A7F803462F
:1035980020F0E8FD0446DFF81890424649F800306C
:1035A80039463046A84754F8090001F013F900BF1E
:1035B800080000002DE9F047058B044628079046CF
:1035C80011D4022905F0070540F0CC8020461EF0F2
:1035D8001EFB78B10138218B042811D8DFE800F0F0
:1035E800C2106D85950001290CBF45F0100545F006
:1035F8002005258388F31188BFF36F8FBDE8F08716
:1036080001F0070AAA4500F0A5800027B9463E4602
:10361800A368002B00F0BC8041F00801218388F3E7
:103628001188BFF36F8FA168002900F0BA800D6878
:10363800002900F0B680334652462046D1F804806F
:10364800C047002D76D02B6829461D46F0E701F0CB
:1036580007035A1F012A1BD8002221F00701062B55
:10366800276889B2C4E9002209D13B4603E0628B8E
:10367800013262831B68002BF9D141F00201204618
:1036880021831EF0C4FA00287AD041F0200176E0A8
:10369800042B0AD121F0070189B2204621831EF0AC
:1036A800B6FA10B141F020012183218B01F0070AFD
:1036B800AA454FD00027B946AAE7236921F0070198
:1036C80041F00601062DD3F8009021832DD1B9F1E0
:1036D800000F3FD041F00801218388F31188BFF320
:1036E8006F8F20463949C84729E021F0070123692F
:1036F80041F0040189B2042DD3F804902183E6D067
:1037080000274FF0040A3E4682E721F007012369AB
:1037180041F0050189B2052DD3F808902183D6D050
:1037280000274FF0050A3E4672E700274FF0060AC9
:103738003E466DE72B4687E7B9F1000FD1D1EFF38D
:103748001188202383F31288BFF36F8F238B23F014
:1037580008032383258BEA062ED525F0100323833F
:1037680005F007056669218B002EBFF670AF0023B0
:103778002768C4E9003321F0070141F001012183E2
:10378800218B4FF0000901F0070AAA457FF440AFEA
:10379800002F9CD041F00801218388F31188BFF3E2
:1037A8006F8F002FC8D03D683946334652462046B1
:1037B8001EF059FA2F46F4E7AB067FF51BAF25F04C
:1037C8002003238305F0070500E700BF9B1C0201C7
:1037D8002DE9F047044607464FF00109DFF850800D
:1037E80014B93846BDE8F08794FAA4F5B5FA85F51A
:1037F80009FA05F32E0108EB05156FEA030A24EA16
:1038080003042B7B002BEBD058F806301B694BB90F
:103818004644736804222846196807EA0A071EF016
:103828004CFBDDE7284698470028D9D1F0E700BFD0
:103838003845020130B5002289B00F490F4820F001
:1038480043FB002200230024CDE906230E230C4D60
:10385800CDE903344FF440722846CDE90144094BC1
:10386800094900941CF05CFC0849284620F0C6F978
:10387800204609B030BD00BF99380001580B00211F
:10388800D0060021853B0001C82B0021B961020147
:1038980001481CF045B900BF540500212DE9F84F37
:1038A800804624480F461EF0ECFA0646002838D019
:1038B80000252846BDE8F88FA4EB0B0362681B11AE
:1038C80001331371237B83B12368DB680BB1204676
:1038D8009847636883F8069023681B69CBB96368C7
:1038E8000422204619681EF0E8FA013610345445BF
:1038F800E2D3B8F1000FDCD0002DD9D02846FFF76D
:1039080067FF0546002FF7D000210A2020F027FA8C
:10391800F2E7204698470028E1D009FA06F31D434C
:10392800E3E7054C0546A3464FF00109DFF80CA074
:10393800DDE700BFB0120021384502014845020109
:10394800014B53F820007047EC45020108B50346C7
:1039580008462BB1044A136000F054FC002008BD4F
:103968006FF01500FBE700BF8401002110B5044C7F
:10397800237813B903481CF0D3F80123237010BD32
:10398800CE2A00215405002110B5044609481EF02E
:1039980078FA3CB1084BD3E8EF1F0139C3E8E21FBE
:1039A800002AF8D1054820F09BFABDE810400448E9
:1039B8001CF0B6B8A8120021AC120021580B002147
:1039C8005405002100200146034BD3E8EF0FC3E85C
:1039D800E21F002AF9D17047A812002170B5FFF73D
:1039E800F1FF0546074C084EB44200D370BD63682A
:1039F8005B792BB123685B6813B129462046984749
:103A08001034F1E7384502014845020110B5044C6D
:103A1800044920461DF079FF034B1C6010BD00BF10
:103A2800A8040021D8450201A012002108B50023EE
:103A3800074A4FF400411370064A07481360074AC3
:103A48001360FFF783FFBDE80840FFF7DFBF00BF43
:103A5800CF2A0021A8120021871E0201AC120021E2
:103A680001460022002301481DF070BFA804002170
:103A780001481EF009B800BFA8040021024B014606
:103A880018681EF055B800BFA012002101481EF0AA
:103A98008AB800BFA804002170B5214B1878002807
:103AA8003CD0FFF7E5FF054670B11E4BD3E8EF1F8A
:103AB8000139C3E8E21F002AF8D11B4C1B4EB4425F
:103AC80022D32846FFF7DAFF194B1A4C1B68002B44
:103AD8000EDD20F0B2F9D4E90032C01A40F2E93321
:103AE80061EB0201984271F1000101D3FFF776FF03
:103AF800D4E9003213F57A7342F10002C4E90032C6
:103B0800BDE87040FFF7C2BF63685B7923B12368E3
:103B1800294620461B6898471034D0E770BD00BF7F
:103B2800CE2A0021AC120021384502014845020185
:103B3800A8120021500B002170B50D4D297861B9EC
:103B48000120FFF7ABFE0B4C0B4EB44206D3FFF738
:103B5800A3FF0028FBD101232B7070BD63685B793C
:103B68001BB1236820469B6898471034EDE700BFD7
:103B7800CF2A0021384502014845020100212DE9DC
:103B8800F0470846FFF78AFE044658B34FF032085C
:103B98004FF0000920F0E6FA1B4B1C4A1B58136033
:103BA80033B11B4B1B68092B02DD1A481BF0B8FF09
:103BB8000025194FDFF85CA044B12046FFF708FE46
:103BC800044618B94FF0FF384FF0FF39FFF764FF8C
:103BD800064628B9B5B942464B4650461BF0DAFFAF
:103BE8003546E9E74FF0FF384FF0FF39D2E72B6849
:103BF8009B691BB100222846114698471035BD42E3
:103C0800F5D3E8E7054DFAE708000000A412002103
:103C1800AC12002154050021484502013845020133
:103C280013B518481EF02DF9174B1B7873B1EFF335
:103C38001184202383F31288BFF36F8FFFF72CFFC3
:103C480084F31188BFF36F8F02B010BD0F4B1B6850
:103C5800002BF9D050B9002200230D48CDE90023EC
:103C68004FF47A7200231CF0FFFFEDE70928EBD12F
:103C7800074820F035F9074802B0BDE810401BF0AE
:103C88004FBF00BFAC120021CF2A0021A41200218F
:103C9800580B00215405002110B5064B04461B683B
:103CA80098472146A06004481DF0CFFEBDE81040AB
:103CB800FFF7B6BF84010021A8040021044A054B80
:103CC8009B1AB1EBD30F34BF52F831000020704774
:103CD80058440201384502012DE9F04F8FB0C1F375
:103CE8004A2804AF0D469146B8607B600C0DB8F1C8
:103CF800000F63D000264FF0040B4FF00A0A07F1BB
:103D08001403C7F80C80C7E907667E620193CDF8F3
:103D180008B0CDF800A007F11C0332464846F96800
:103D2800FFF740FAB0F5006F03461CD36C468AB023
:103D3800D9F8041004AB26481A46C3E9050140F235
:103D4800FF71D9614FF400711984224B42F8103F7A
:103D58004FF4125133462048FFF7BEFFA5462C37D3
:103D6800BD46BDE8F08FC0F30A0804F117001844F7
:103D780020F0070080083B60FFF772FE68F35325C8
:103D8800044690B13B6800F11001C7E9083607F115
:103D98001403F961CDE900A3CDF808B048460F4AED
:103DA800F96807F11C03FFF7FDF968F353252A4664
:103DB80020467B68B9681EF09FF8D0E704F1170029
:103DC80020F007008008FFF74BFE0446EDE700BF30
:103DD800CE61020104000001E0440201D51E020187
:103DE8002DE9F04F87B00446DDE9105ADDE9127974
:103DF800934698460391BFB13B4652461021002096
:103E0800CDF80090CDF81490FEF7FAFFB0F5006FEA
:103E180006460AD340F2FF730221174A174807B033
:103E2800BDE8F04F1EF0C1B83E4605F1170030441A
:103E380020F007008008FFF713FE04F007040BF0DA
:103E4800070BE40044EA8B1444EA462444EA055488
:103E5800054640B13FB13B4652463146CDF8009049
:103E68001030FEF7CDFF434622462846039907B097
:103E7800BDE8F04F1EF040B80D620201E0440201B7
:103E8800406820B1034BC01A40F3CF0070474FF091
:103E9800FF307047584402010EB403B503AB53F822
:103EA800042B01460448019301F052F802B05DF872
:103EB80004EB03B0704700BF15200201CA0605D401
:103EC8008B064CBF02490349FFF7E6BF704700BFA6
:103ED80046620201456202012DE9F04F89B09B4616
:103EE800149B9DF84CA00693159B04460593169BBE
:103EF8000D469046179E0493BAF1000F00F09D807E
:103F080006F4807307931DF0D6FF06F002090246F7
:103F180000283ED020469149FFF7BEFF0746B9F179
:103F2800000F08D016F0440F35D12A4620468C4998
:103F3800FFF7B2FF074406F0010353B1894B20464F
:103F480053F82A20884B8949002A08BF1A46FFF7E8
:103F5800A3FF06F48073002B49D006F00803002B5A
:103F680063D1B8F1000F66D0424620468049FFF77A
:103F780093FF0546069B3D44002B6DD1049B002B07
:103F880073D1F30700F1E48031462046FFF796FF2E
:103F9800D8E00746C3E7774B18680028CAD0764BA5
:103FA8004FF47A791B684FF03C0CB5FBF3F5B5FB81
:103FB800F0F14FF4616300FB115509FB05F5B1FB06
:103FC800F3F2B5FBF0FE03FB121100FB1E55B1FB2B
:103FD800FCF309FB05F5B5FBF0F50CFB13112046C6
:103FE8000091CDE901E56549FFF756FFA2E706F024
:103FF8000803EBB1624B204653F82A206149FFF7CA
:104008004BFF0546B8F1000F05D0424620465849F7
:10401800FFF742FF0544BBF1000FABD05A462046DC
:104028005949FFF739FF0544A4E74FF0000BE1E7D2
:1040380006F00805E6E745469CE7BBF1010F069B3D
:1040480006D1002B64D1049B002B7BD000250CE00B
:10405800002BF8D04D485CE04D48069B22464D4960
:104068001DF0DAFA049B002B68D0DFF82C81DFF80A
:104078002C91049F3146102F204628BF10274FF05F
:10408800000BFFF71BFF5D4545DC059B49462046B5
:104098001A78FFF701FF4FF0010B1BF0070F03D150
:1040A80041462046FFF7F8FE5F453BD9059B494648
:1040B800204613F80B20FFF7EFFE0BF1010BBBF1C5
:1040C800100FEAD14FF0000B20463549FFF7E4FE08
:1040D8005A46059B20469A5CA2F120015F2928BF19
:1040E8002E223049FFF7D8FE0BF1010BBBF1100F60
:1040F8001DD01BF0070F03D141462046FFF7CCFE29
:104108005F455A46E5D841462046FFF7C5FEEBE72E
:104118001F485546A1E741462046FFF7BDFE0BF173
:10412800010BB0E720462049FFF7B6FEC5E7059B1F
:104138003B440593049BDB1B04939AD1BAF1000F0F
:104148007FF41FAF204609B0BDE8F04F1DF051BF06
:104158002046054A0549FFF79FFE15E74D62020113
:1041680051620201FC450201486202011470020119
:1041780076620201B8120021B41200215A620201CB
:10418800104602017A6202018062020143200201A4
:1041980015200201594F00018D620201856202015A
:1041A8008F620201259C02018B62020142F20F73A9
:1041B80073B58B4228BF0B4605680446052168463F
:1041C8000D4A1CF0D7FD0646636828460B225B683B
:1041D8000A491DF000FF63683246694628465B6855
:1041E8001DF0F9FE63681B2228465B6804491DF030
:1041F800F2FE02B070BD00BF716A0201AD62020139
:104208009162020100210123064A904206D8064A1B
:1042180001B901231360054B18607047012140085C
:104228005B00F2E740420F00B4120021B8120021EF
:10423800F8B50D460446064F4618B44201D1284643
:10424800F8BD14F8011BBB6801485B689847F4E7A0
:104258007C420201014B036000207047584602016E
:104268002DE9F04706460C4600AF002936D0D1E9C3
:104278000012E9468AB06D46A3684FF0050AA846C1
:104288001F48C5E90723C5E9050148F810AF002311
:1042980042464FF421511B48FFF71EFDD4E9031293
:1042A800CD466369AD461848C5E90723C5E9050148
:1042B800C5F810A0002342464FF421511148FFF7DA
:1042C8000BFDCD46E3690121104A0E481DF06DFE35
:1042D800A36901210E4A0B481DF067FE012E07D184
:1042E800EFF305830B4A31460648103B1DF05DFE8F
:1042F800214630461BF028F8BD46BDE8F08700BFD0
:10430800F3620201184502012263020151630201AE
:10431800606302018E63020130BFFFF7FDBF00BF7B
:104328002DE9F04105460B4EDFF82C80324606EBAE
:104338000807CC1B204609491FF06AFEA01942460F
:104348000021083C1FF08BFE6C6707F10800BDE8F0
:10435800F08100BF00000000040000004845020191
:10436800054B5A699B689A421FBF044A536843F039
:1043780080535360704700BF7C2A002100ED00E0A5
:1043880070B5224C06460D46214822491DF0DCFE38
:10439800A36AD90638D51E481F491DF0D5FE11203D
:1043A800A36A1A0704D51A481C491DF0CDFE12202D
:1043B800164CA36A9B0712D5194915481DF0C4FE6F
:1043C800636BA26A110609D50121164A10481DF02F
:1043D800ECFD1EB1A36A23F08003A36213200B4CEB
:1043E800A36ADA0704D50A480F491DF0ADFE142068
:1043F800A36A064ADB0658BFA36A936A43F0FF0321
:10440800936200232B7070BD1020C9E700ED00E017
:1044180018450201A1630201B7630201EA630201C0
:10442800FD630201156402012B64020110B5244CDE
:10443800244925481DF088FEA36A99013ED52248E3
:1044480022491DF081FE1E20A36ADA0104D51E4808
:104458001F491DF079FE1F20194CA36ADB0204D501
:1044680019481C491DF070FE0220A36A1C0304D5DC
:10447800154819491DF068FE2120114CA36A5903FB
:1044880004D5114815491DF05FFE2220A36A9A033E
:1044980004D50D4812491DF057FE2320084CA36A85
:1044A800DB0304D508480F491DF04EFE2420A36AFB
:1044B8006FEA03436FEA1343A36210BD1D20C3E7ED
:1044C80000ED00E04A64020118450201626402013D
:1044D800756402018F640201B9640201D7640201A4
:1044E800FC6402011665020170B5244C06460D46AF
:1044F800234824491DF028FEA36AD9043CD5204846
:1045080021491DF021FE1720A36A1A0504D51C486D
:104518001E491DF019FE1820184CA36A9B0512D5D8
:104528001B4917481DF010FEA36BA26A110409D598
:104538000121184A12481DF038FD1EB1A36A23F460
:104548000043A36219200D4CA36A5A0504D50C48F0
:1045580011491DF0F9FD1A20A36ADB0504D50848A6
:104568000E491DF0F1FD1B20044A936A43F47F4372
:10457800936200232B7070BD1620C5E700ED00E0A4
:10458800184502014165020157650201EA6302010B
:10459800686502018165020196650201B165020143
:1045A8002DE9F0418AB0654B0446D3F80480002613
:1045B80000AFC8F3080586F31188BFF36F8F02F0C8
:1045C8007F43B3F17F4F07D102F00C03082B12D1C0
:1045D8005B495C481DF0B8FD002634460023FB719A
:1045E800EB1E092B00F28980DFE803F00A7F827B4B
:1045F80087878787878510074CBF0C460126EDE71C
:10460800514950481DF0A0FD00234C4DFB71EB6A49
:104618009A0705D54D494B481DF096FD002331E01A
:10462800EB6A002B01DA4A49F5E7EB6A5B00F5D53E
:10463800484944481DF088FD6B69A26943F48073BA
:104648006B61BFF34F8FBFF36F8F6B6932F8022C2A
:1046580023F480736B61BFF34F8FBFF36F8F4DF6F9
:1046680002739A4207D0AB6ADBB26BB30120F91D23
:10467800FFF786FE37E023680121374A31481DF0ED
:1046880094FC2368FA79DAB907F1080504F1200CDB
:104698002A4620686168083403C264451546F7D184
:1046A8007A6A002E45D0C2F3080121B96FEA522276
:1046B8006FEA42227A62184607F10801FFF7D0FD37
:1046C8002837BD46BDE8F081AB6A13F47F4F04D0AC
:1046D8000120F91DFFF708FF05E0AB6AB3F5803F3D
:1046E8009CD3FFF7A3FE0346CCE70020F91DBFE7E4
:1046F8000020F91DEEE719498DE7194A18F4F87FEB
:10470800E8468AB0174B18BF13466A461649103D4B
:10471800C2E905134FF400731384144BD56142F8B2
:10472800103F00234FF411510648FFF7D5FAC5464C
:1047380074E722F4FF7222F00102BBE700ED00E00B
:10474800F765020118450201226602013966020175
:104758005A6602016866020187660201A3660201C1
:10476800DE650201C9650201C76602010400000195
:10477800064B5A6942F010025A615A6942F4806243
:104788005A615A6922F008025A61704700ED00E048
:10479800EFF30880EFF3098101B57246FFF700FFD8
:1047A80001BD00BF19F08AFF202080F31188084856
:1047B8004FF40061401880F30988EFF31480022158
:1047C800084380F31488BFF36F8F00F0A5F800004A
:1047D80068390021084B9B6883420BD1EFF30583AE
:1047E80043B1064B5A6842F080525A605A6A22F422
:1047F80000425A621BF078BF7C2A002100ED00E0DD
:1048080016498A684FF030001044EFF3098C80E8AD
:10481800F01F202080F31288BFF36F8F104F4FF0E6
:1048280000664A698A603E604FF074041419206873
:104838000C4C2060906F0023936780F3118802F17D
:10484800300090E8F01F8CF3098802F1000004B5ED
:104858001DF082FCBDE80440704700007C2A00215E
:1048680004ED00E0E81200211EF0040F0CBFEFF386
:104878000880EFF30980816911F8021C0229FFD032
:1048880001B572461DF055FC01BD00BF40B20028BD
:1048980007DB01234109034A00F01F00834042F867
:1048A8002130704700E100E040B200280CDB012213
:1048B8000649430900F01F008240203341F82320B5
:1048C800BFF34F8FBFF36F8F704700BF00E100E069
:1048D800054B420953F82220012300F01F0003FA78
:1048E80000F01040704700BF00E100E040B200282F
:1048F80001F10101ACBF00F16040064B4FEA4111E4
:10490800C9B2ABBF00F5614000F00F0080F800139A
:104918001954704714ED00E008B5084B084A23F015
:104928007F039360BFF34F8FBFF36F8F1AF0F8FDCB
:104938001BF0F4FF00F048F81AF032FE0000000106
:1049480000ED00E042F8203C009B0B4942F81C3C7B
:10495800019B21F0010142F8183C029B42F8081C17
:1049680042F8143C4FF0807342F8043C0023203A8C
:1049780002658367704700BF8935000100B50B4B9E
:1049880015469860426F0A4B0E461A60436E83F3D1
:104998000B882C4686F309880020064B984720464A
:1049A800002100220023044C204700BF7C2A00215C
:1049B800E812002169210201893500011022014B0A
:1049C8001A61704700ED00E0002320210348C21857
:1049D80001331E2B82F80013F9D1704700E100E083
:1049E80008B5EFF30583064A103B02EBC30152F802
:1049F800330049688847BDE80840FFF7B1BC00BFED
:104A0800B84202011FB5094C094A23460121094849
:104A180000F086F900230393074B0121E41A01A84B
:104A28000193029400F086F904B010BD0000012142
:104A38000000002158460201D0060021F8B50C7A82
:104A48000B6804F01F0223F01F031A43CB686409A4
:104A580023F01F0343EA4403124C43F00103C4F854
:104A68009800C4F89C20C4F8A0300B7A00AF8CB032
:104A78000D6803F01F046A46C9685B09C2E90A3178
:104A88000823094EC2E908545661084EC2E9066077
:104A980042F8103F00234FF482410548FFF71CF904
:104AA800BD46F8BD00ED00E0DE660201E5670201E3
:104AB80000450201F8B5164A0346D2F890200D4683
:104AC800C2F30722013A904200AF09D90121114AE5
:104AD80011481DF06AFA6FF015042046BD46F8BD6E
:104AE8006E4688B004466A460C4B53610C4BC2E9CB
:104AF8000630042342F8103F00234FF404510648BF
:104B0800FFF7EAF82946B5462046FFF797FFE4E79E
:104B180000ED00E003670201004502012967020178
:104B2800F1670201F0B585B06E4600AF88B0044663
:104B38000D466A46134B5361134BC2E906300423F2
:104B480042F8103F00234FF404511048FFF7C4F80F
:104B580029686B682A8968893960013B21F01F013F
:104B68000B4402F01F0242EA4012394623F01F03A9
:104B7800B54620463A72FB60FFF79CFF1437BD46E6
:104B8800F0BD00BF4E6702010A680201004502013C
:104B98002DE9F04F8946144606464FF00008514D5E
:104BA80085B0C84527DAD6F804A0BAF1000F44D07A
:104BB800BAF11F0F17D91AF01F0F14D1D6F800B089
:104BC8001BF01F0F0FD158461DF00AFB07460AEBD2
:104BD8000B0001381DF004FB874210D06FF0150759
:104BE800414A3B4601E04346404A012140481DF006
:104BF800DCF96FF01504204605B0BDE8F08F17F119
:104C0800160FEDD0BC42EBDDC5F89870D5F89C10B6
:104C1800C5F89870D5F8A03021F01F0143F01F0B9C
:104C2800D6E900321A44994202F1FF3A1DD1D34520
:104C380007D13146F8B2FFF775FF08F101080C36C5
:104C4800AFE73146C5F89870D5F89C3022F01F02BE
:104C580003F01F031343C5F89C30E0B2FFF762FF6F
:104C680010F1160FC5D0441CE7E7C5F89870D5F8C1
:104C7800A020013B23F01F0302F01F021343D3457A
:104C88003146E0B2C5F8A030E8D0FFF74BFF10F18D
:104C9800160FAED0C5F89870D5F89C209DF808304E
:104CA8000BF1FF3B62F304038DF80830D5F8A03010
:104CB8009DF808205B0863F347128DF80820D6E9B1
:104CC80000321344009323F01F035B44A3EB0A0351
:104CD800013023F01F036946C0B20393FFF7EAFED1
:104CE800BEE700BF00ED00E09867020175670201AA
:104CF800004502010522044BC3F89420BFF34F8FEF
:104D0800BFF36F8F704700BF00ED00E0BFF35F8F08
:104D18000022024BC3F89420704700BF00ED00E06A
:104D280010B5034C2278FFF733FF207010BD00BF89
:104D3800D12A00212DE9F74F294D8A4606464FF022
:104D48000008AB46274FD0451BDAD6F80490B9F1D6
:104D5800000F3FD03168084601911DF041FA0199D2
:104D6800044609EB010001381DF03AFA84424FF07D
:104D780014021D4B08D002FB08F36FF015024BF824
:104D8800032003B0BDE8F08F14F1160F2C60F8D0A3
:104D98001978A142F5DD02FB08B0C7F89840C7F8BA
:104DA8009840D7F89C4000F10801007B64F30400A8
:104DB8000871D7F8A0000C79400860F347140C710B
:104DC800D7F89C1021F01F016960D7F8A01021F0D6
:104DD8001F01296108F1010814350C36B3E700BF3B
:104DE800EC12002100ED00E0D12A00212DE9F0416C
:104DF80086B04F4C4F4ED4F890303568C3F3072334
:104E08009D4200AF00F29180E84688B0D4F8903017
:104E18006A46C3F30723D3610423474951614749CD
:104E2800916142F8103F00234FF404514448FEF7C3
:104E380053FFC546FFF76AFF424BC4F8C030002451
:104E4800AC4217D3404C381D2570FFF703FA0025F4
:104E58000646DFF8F880AE4214D1002023783449A2
:104E6800D1F89020C2F30722934258DBFFF742FFA4
:104E7800002031E07168204601EB0411FFF7DEFDE8
:104E88000134DDE77968280101EB0513DA6802EAE5
:104E98000802B2F5001F23D0B2F5800F2DD0B2F56D
:104EA800801F3AD15A689B680958013B22F01F00BD
:104EB80003440120844623F01F0340EA4C10C7E94D
:104EC8000221387407F1080120787B61FFF7F2FDB1
:104ED80000281FDA6FF015001837BD46BDE8F081CD
:104EE8005A689B680958013B22F01F0003444FF0A1
:104EF800020C012023F01F03DFE75A689B6809585A
:104F0800013B22F01F0003444FF0000C062023F061
:104F18001F03D2E723780133237001359BE7C1F8DB
:104F28009830C1F8A00001339AE74FF0FF30D3E77B
:104F380000ED00E064460201BB670201D66702018A
:104F480000450201AAFF4400D12A00210000F0FF19
:104F5800F0B587B007460E46144600211022684671
:104F68001D461FF07CF802238DF80230054B2A46B7
:104F780021466846CDE9047601931BF027FF07B068
:104F8800F0BD00BFFB21020108B5024B1B68984722
:104F9800002008BD00130021034B044A18609378D1
:104FA80043F0020393707047001300219001002121
:104FB80008B50649064821F00701C1F1045202F577
:104FC80080321CF0ECFA002008BD00BF7B9F002156
:104FD8000413002170B541690446867A0A4D59B117
:104FE800437ADB0706D42C2303FB06535B6A1B6852
:104FF8009B689847002363612C20214600FB0650DC
:10500800BDE870401EF0E6BC9C0500212C22024B36
:1050180002FB0030704700BF9C0500212C21827ADA
:10502800054B01FB02339A6A1B7F801A1B3323F05E
:105038000303B0FBF3F070479C05002138B52C241E
:10504800827A064B04FB02335B6AD3E901240C60C5
:105058001568FFF7E3FF04FB005038BD9C050021ED
:105068002DE9F04385B00546684690461C460391F5
:105078001EF0E5FEDDE90067EFF31189202383F3D5
:105088001288BFF36F8F6B8B002B41D02A8B9A420B
:1050980025D90022002328461AF010FD0446F0B155
:1050A80089F31188BFF36F8F039B002B41D03246E1
:1050B8003B4668461EF0E7FE2C21A27A254B204687
:1050C80001FB02335B6A03A91B681D68DDE9002345
:1050D800A847606170BB2046FFF77CFF24E0698B1E
:1050E8004B1E6B8389F31188BFF36F8F2B7F2A8B3D
:1050F800AC6A1B3323F00303521A02FB0344154B1B
:10510800154AEB1A9B105343A3722B7FE372CBE72C
:1051180089F31188BFF36F8F2346424628461AF059
:10512800CDFC04460028BFD10024204605B0BDE8C8
:10513800F0836361012300252381039B2946638251
:10514800E27A656004F118001EF089FF6369258220
:10515800E360EAE79C050021A38B2EBA70B52C25E5
:105168000B4C00B970BD037A4668013BDBB2037291
:10517800002BF7D1C3604360837A05FB03431B6AA6
:1051880013B198473046ECE7FFF724FFFAE700BF72
:105198009C050021064AD2F8AC3123F00043C2F83E
:1051A800AC310022034BC3F84C21D3F84C31704783
:1051B80000200141006001410122024B0020C3F898
:1051C80040257047000008415023142213B51F4C96
:1051D8000DF10700C4F80C351D4BC3F820214FF41E
:1051E80000621C4BC3F8BC254FF48062C3F8382515
:1051F80019F014FB184B984225D118499DF807005F
:105208001EF07DF916499DF807001EF07DF9154935
:105218009DF807001EF073F921469DF807001EF05F
:1052280073F901209DF80730984019F0EBFA4FF414
:10523800002200200C4BC3F84423C3F84C01D3F8D8
:105248004C3102B010BD6FF00B00FAE700B000411E
:1052580000302041002001410000AD0B4C610141AC
:10526800282001412C2101410060014173B5354BD3
:10527800D3E84F3F00233449CDE90033334BD3F80B
:105288000445BFF35F8FD1F80465BFF35F8FD3F890
:1052980004259442F3D16B46224603212B481DF086
:1052A80070F8324605460F21274801AB1DF069F812
:1052B800E0B1019B0DB9009302E0009A9342FAD342
:1052C800009B22481C44013CD0F84C3524F07F4414
:1052D8009C421F4932D0FFF75DFFC0F84C451D4B7B
:1052E800009A9A4218D901230B7001E0002DE7D1EA
:1052F800194AD2F8AC3143F00043C2F8AC31134B31
:10530800D3F84C2132B90121144A5160D3F84C31F9
:1053180003B1116001230DE0BFF35F8FD0F80435AE
:10532800E41A24F07F440E4B033C9C42DBD9002353
:105338000B7000230B4A137002B070BD0B78002B62
:10534800F7D0D5E7D72A00210010014100600141BC
:10535800D52A0021FEFF7F000020014100B0004156
:10536800FBFF7F00D62A00212DE9F8432D490023B1
:1053780000AFC1E8423F72BB2B4B1D785DB30523DC
:10538800DFF8A880DFF8A89098F80040294E01348B
:10539800B4FBF3F303EB8303E41A1EF0A9F8264ADF
:1053A800137823B359F82430C01A07281FD8337844
:1053B8008BB96C4688B06A46204951612049916191
:1053C800032142F8101F4FF4C8511E48FEF784FC11
:1053D8000123A54633701C4A0025D2F8AC3123F0CE
:1053E8000043C2F8AC310122184B5A6015E0184B43
:1053F800D3F8141149B10021C3F81411D3F81431AA
:1054080088F800400CB90123137098F800401EF08A
:105418006FF8002349F8240033702846BD46BDE8DC
:10542800F88300BFD72A0021D62A0021D32A0021D9
:1054380010130021D42A0021D22A00214568020134
:1054480072680201204502010020014100B00041BC
:105458000050004120B1034B800143F0010318477D
:10546800704700BFD045020108B51BF075FB024B21
:105478001B68184408BD00BFA0010021F0B5002634
:1054880087B0394B03A904A804938DF8146019F068
:10549800DDFA364B984263D119F0A0F8041E0BDAF6
:1054A8009DF80C1004A819F0D9FA01212346304AB6
:1054B80030481CF07AFD50E04FF4E1632E4D8DF832
:1054C8000D40AF68ADF80E307C68039B14B96FF0DF
:1054D8005704EAE707212846284AA047041EE4DBC8
:1054E8003B69002BF3D00122072128469847041E68
:1054F800DBDB01209DF80C30984019F083F99DF80A
:105508000D009DF80C709DF80E5018F0CFFEAD0000
:105518001B4B47F00042EDB201465A5138461DF088
:10552800EEFFEFF31185202383F31288BFF36F8F0B
:1055380018F0CCFE134B00F164021A60039B9DF82F
:105548000D000193104B009333461DF0C5FF85F302
:105558001188BFF36F8F002CA7D1204607B0F0BD8C
:105568006FF01204A1E700BF00F000410000AD0B8E
:105578008E6802012845020190420201E1550001AE
:1055880080200141241300219555000170B5049C29
:10559800C4F30726304618F089FEE5B201462846CE
:1055A8001DF0BEFFA20B0A4B02F0FC0213440022BE
:1055B80030461A601DF086FF014628461DF0A4FFFC
:1055C800240E044BA40045F000451D5170BD00BFDA
:1055D8008020014180210141F0B5144685B08368DF
:1055E8001B690BB100229847C4F30727384618F007
:1055F80065FE054638461DF065FFE6B201463046B1
:105608001DF092FF00220120174B240EA4001A510E
:105618006FF06304A3F54653B04002938DF80C2055
:1056280019F0F6F8384618F0F7FF314602A819F0D5
:1056380015FA0E4B4FF400411B680D48A4EB4304C8
:105648002C440C4D2C60FEF781F92B680A4A032183
:1056580084FB0242E40B44EA42440848084A0094A6
:105668001CF0ADFC05B0F0BD8021014124130021E0
:1056780071540001A001002140420F002845020199
:10568800B668020108B504481DF0D8FF00280CBF11
:105698006FF01200002008BD544202010E4B402951
:1056A80028BF402170B51D460C4C4618B04203F186
:1056B800020304D1002305F81130074870BD0278B1
:1056C8001209A25C03F8022C10F8012B02F00F0259
:1056D800A25C03F8012CE9E72D2B00217569020172
:1056E80010B5037886B004934378084C0393837805
:1056F80012210293C378064A0193037900934379F0
:1057080020461BF037FB204606B010BD1B2B00219E
:105718001269020130B503788BB0044607AD032B3C
:1057280021D8DFE803F0021A1C1E12492846FAF7AE
:10573800D9FC059563781E210493A3780E4A039338
:10574800E3780E4802932379019363790093A37950
:105758001BF010FB09480BB030BD0949E6E70949C1
:10576800E4E70949E2E70A212846084A1BF002FB58
:10577800DFE700BF3069020152690201FD2A0021FA
:10578800376902013E69020148690201668D02011A
:1057980010B5034C2522214600F040F8204610BDE4
:1057A800D82A0021037830B5012B13D0022B27D03B
:1057B8007BB90A46184B03F1100453F8045BA34263
:1057C80042F8045BF9D11B78137043884B731B0AAA
:1057D8008B7330BD0A46104B03F1100453F8045B79
:1057E800A34242F8045BF9D11B7813704368C3F3F2
:1057F80007224B731B0CCB731B0A8A730B74E8E7E5
:1058080000F1100350F8042B984241F8042BF9D109
:1058180003780B70DDE700BFA3690201034610B5EA
:105828001C780846012C114686B009D0022C0AD0F3
:10583800FCB95B88124A06B0BDE810401BF09ABA62
:105848005B68104AF7E7B3F801200492D3F8032005
:105858000392B3F807200292B3F809200192B3F833
:105868000B200092D3F80D30074A1BF083FA06B0DC
:1058780010BD002106B0BDE810401EF0F0BB00BF0F
:10588800468A02011D6302018669020108B51CF0FF
:1058980014FE1AF0EFFD044B1B680BB10A20984761
:1058A800BDE808401AF0FABD2813002138B50546AE
:1058B80005481CF0AFFC044620B101210C301CF057
:1058C8000AFD2576204638BD780600210F2810B538
:1058D8000ED80D280ED90B481CF09CFC044628B1A4
:1058E80001210C301CF0F7FC02232376204610BD62
:1058F8001328F0D009B10448EEE70220BDE81040B3
:10590800FFF7D4BFA4060021F40500212DE9F843D0
:1059180000AFE9468AB0904604460D461E466A46E0
:10592800184BC2E908865361174BC2E906300623B3
:1059380042F8103F00234FF444511448FEF7CCF9C5
:10594800CD4605F10C0904F10C0148461CF0C7FCD2
:1059580048461CF00AFD1FFA88F3184423820123E5
:1059680060826372414648461CF0DFFCEB682046C3
:10597800736000236A8AEB6072816B823560BD4672
:10598800BDE8F883B46902010A6A020168440201A9
:10599800F8B500AF6E468AB005460C466A46114B0C
:1059A80011625361104BC2E90630052342F8103FDB
:1059B8004FF4245100230D48FEF78EF9D4E9003244
:1059C800DA6023686289B5465A822068FFF7C6FB09
:1059D8001022002120461EF042FB28461CF06DFDD7
:1059E800BD46F8BDDA690201F669020168440201A0
:1059F800C36802211B78024A02481CF093BD00BF0D
:105A08002A6A0201A8440201012110B50C301CF0D9
:105A180094FCBDE8104003780121024A02481CF0BA
:105A280081BD00BF526A0201A8440201014610B5B7
:105A380008481CF0F3FB084908481EF087F8031EC5
:105A480006DABDE810400121054A06481CF06ABD87
:105A580010BD00BF4C010021B4010021900B0021B2
:105A6800746A0201A844020110B5084C01460622D6
:105A780094F86F0004F0D2FC38B994F86F0005224E
:105A8800BDE81040024904F0C9BC10BD0000002167
:105A9800F86802010121024A02481CF041BD00BF1A
:105AA800916A0201A84402010B46B0B50D8A00AF05
:105AB80004462946D868FFF7F1FD8AB06A46094BC3
:105AC800C2E90750C2E9053440F202439384064B09
